:020000040000FA
:1000000020030020C10000009118000081180000AA
:10001000FFFFFFFFFFFFFFFFFFFFFFFFFFFFFFFFF0
:10002000FFFFFFFFFFFFFFFFFFFFFFFF951800002F
:10003000FFFFFFFFFFFFFFFF93180000B118000054
:1000400003010000030100000301000003010000A0
:100050000301000003010000030100000301000090
:1000600003010000FFFFFFFF030100000301000088
:10007000030100000301000003010000FFFFFFFF78
:10008000FFFFFFFF690F00000301000003010000F4
:100090000301000003010000030100002D1A00000D
:1000A00003010000B1190000E9190000030100007C
:1000B0000301000003010000030100000301000030
:1000C0001048804710488047104800471048016991
:1000D000002910D1416900290DD1816900290AD177
:1000E000C169002907D1BFF34F8F0A490A48C86088
:1000F000BFF34F8FFEE77047FEE7FEE7FEE7FEE740
:10010000FEE7FEE7CD000000B51800001D0100006D
:100110000003084000ED00E00400FA0503488546AE
:1001200000F0CAFB00480047E5240000200300203F
:1001300030B50B46014600202022012409E00D467F
:10014000D5409D4205D31D469540491B2546954007
:1001500040191546521E002DF1DC30BDD2B201E02F
:100160000270401C491EFBD270470022F6E710B512
:1001700013460A4604461946FFF7F0FF204610BD15
:1001800030B505462A460B4610781C78521C5B1C7D
:10019000002801D0A042F7D0002C03D0002802D0C4
:1001A0006D1CEFE7284630BD421C0178401C002939
:1001B000FBD1801A704710B5002200E0521C835C0E
:1001C0008C5CA34201D1002BF8D1D8B2E1B2401A25
:1001D00010BD30B504460020034600E05B1C93428E
:1001E00003D2E05CCD5C401BF8D030BDF8B50246D0
:1001F0004A40D40F42004B0052085B089A4202D298
:100200000246084611464A0023D0C30D4A00DDB21B
:10021000120EAD1A202D35DA49020126490AF605DB
:100220008A19002C00D0524220214F1B1146B940A0
:100230002A411018C20D9A4221D0002C17D0012D4E
:1002400008DCDA05801AD20F8019D207DBB200F081
:1002500000F9F8BDDA05801A012340001B06C0181A
:1002600080185A428018CA0F1043490007E0490815
:10027000C2071143DA05801A80194008801800F07F
:10028000E0F8F8BD61000122511A001BF7E70122D6
:10029000D2075140AAE70122D2075040A6E7024602
:1002A00070B54A40D30FDB0740002DD04A002AD05A
:1002B000010E140E000212020919400A520A841893
:1002C000E50104465443000A120A2E045043A419BF
:1002D0004219200CC543AA18120C0125AD03521C6B
:1002E000521912047F39240400D0521C104301D447
:1002F0004000491EC2B20C06C0092018401C40082C
:10030000802A02D003E0002070BD40084000002990
:1003100000DA0020184370BD70B502464A40D50F80
:1003200040004A00ED0740085208002814D0002A77
:1003300012D0C40DD30D41020120C0055202490A5A
:10034000520AE41A091812187D34914201D3641C30
:1003500000E04900002C01DA002070BD002391422A
:1003600001D3891A0343400849000028F7D1002926
:100370000AD0914202D10121C90705E0914201D280
:10038000012101E00121C943E005C018401900F036
:1003900058F870BD420005D04200120E52428A4207
:1003A00001DB00207047C9050818704710B500220E
:1003B0009623114600F04DF810BD41004002012285
:1003C000400AD205090E80187F2901DA0020704703
:1003D000962903DC9622511AC84070479639884006
:1003E0007047F0B51FB40646002082B00546402491
:1003F000019100901BE0019922460F46304600F023
:100400007DFA049A059B801A994110D3104619462B
:10041000224600F063FA361A8F41019722460120E6
:100420000021009F00F05AFA38184D4100902046F4
:10043000641E0028DFDC019B00982946324607B085
:10044000F0BD002904DA401C490001D140084000F9
:10045000704770B40024050C05D11024000402D1AB
:10046000002921D01124050E01D100020834050F06
:1004700001D10001241D850F01D18000A41C00289A
:1004800001DB4000641C002908D020252E1B0D46EE
:10049000F540A14000D001212943084301061B1B60
:1004A000000ADB1D02D5002070BC7047DB05181860
:1004B00080180029F8DA401C4900F5D170BC4008CA
:1004C00040007047F0B507460846584087B0C00F57
:1004D000049048000E46590040084908BC1A88415B
:1004E00005D2384631461E4617460B46024658008E
:1004F000400810434CD0300D039040055900400D8A
:10050000490D0590401A0290402872DA1803012123
:10051000000B09050843019004980092002805D0BB
:100520000199524200208841009201900298402196
:100530000A1A0199009800F0D1F905460C466B465D
:1005400007CB00F0ECF9C0197141039A0E0D00239E
:10055000D71756401A467A40164344D0049A002AC8
:100560002DD0029A012A039A15DC1205C01A914176
:1005700001263605001C7141D20F059ED20700935B
:10058000019202962A46234600F0E9F907B0F0BD31
:1005900038463146FAE71605224A0F46B218C01A05
:1005A000B74101210905001C4F4100187F41114648
:1005B00018187941E20F10436D19644113E0E20706
:1005C0006D0815436408C2071443039A01261205F7
:1005D000C01A91413605001C7141CE0740083043D6
:1005E0004908C01851412A46234600F0ABF9CDE72F
:1005F000FFE7049801224000C117121A00238B4123
:1006000004983146C417381AA141EEE730B40124EA
:10061000E407634030BC55E730B40124E40761408F
:1006200030BC4FE70000E0FFF0B51FB488B00B9975
:100630000998002448400999C00F490049080991C8
:10064000C0070B990090490049080B910999089837
:10065000A64608431CD00B990A98084318D009985D
:1006600001244000420D4800410D09982405000373
:10067000000B204309900B980003000B20430B90C4
:1006800050181C494018002201901446104605E0FD
:10069000002001460DB0F0BD032801DA034600E05A
:1006A00003239C46C11A0AAE0AE05F0008ADED5B69
:1006B0004F00F75B7D430027AA187C41491C5B1E55
:1006C0006145F2DD410004AB5A522104120C0A4389
:1006D000240C401C0828DFDB01980290009970462A
:1006E00001910090059B049A0799069800F037F94C
:1006F000D0E700000DFCFFFFF0B50C465C4085B074
:10070000E40FE40703944C00002664085900944663
:10071000490802460296224321D062460A431ED06F
:100720006200570D4A000E032303550D01240246B3
:100730002C492405781B1B0B360B401823432643FA
:10074000614600901C46501AB44103D30098401CE7
:10075000009002E0921800985B41002803DA002024
:10076000014605B0F0BD0020012109050746864677
:1007700011E064461D46141BB54106D36546521B65
:10078000B341744607430C43A646CD0740084908C9
:10079000284392185B4105460D43EAD110461843A1
:1007A00013D06046194650407140084306D0604659
:1007B000101AB34106D20122002306E000220123D1
:1007C000DB0702E00122D243531000987446010572
:1007D000381C6141029C039D0019694100F0B2F888
:1007E000BFE70000FD030000C217C10F504010B565
:1007F0004018CA0796230021FFF72BFE10BD00000A
:100800004A0009030123090B1B0519430A4B10B5C4
:10081000520D9A4202DA0020014610BD064B3433D5
:100820009A4203DC9A1A00F069F810BD034BD21803
:1008300000F054F810BD0000FF030000CDFBFFFFE7
:1008400010B54100C40F0A0E40020121400AC9053B
:10085000E40740187F2A07DA7D2A00DA7D22763AFB
:1008600090400146002008E0962A09DC1346763BBA
:100870000146994096239A1AD040FFF7E2FD01E025
:10088000963A9040002C00D0404210BD10B500298F
:1008900004DB0124E40740428C412146002B04DBA9
:1008A0001C460123DB075242A341994200D19042EA
:1008B00010BD000000207047064C0125064E05E0E3
:1008C000E36807CC2B430C3C98471034B442F7D371
:1008D000FFF728FC942C0000B42C000010B5202A4F
:1008E00004DB0146203A9140002010BD91402023B6
:1008F0009C1A0346E3401943904010BD10B5202ACE
:1009000004DB0846203AD040002110BD0B46D340FE
:10091000D0402024A21A91400843194610BD10B5BA
:10092000202A06DBCB170846203A1041C1170B439B
:1009300006E00B461341D0402024A21A9140084300
:10094000194610BD10B5002B08DA0024401C614187
:1009500092185B411A4301D14008400010BDF0B528
:100960001FB482B005460C0003D0084601F0F4F82D
:1009700002E001F0F1F820300246009021462846BE
:10098000FFF7ACFF049B059A04460F46184311433A
:10099000084314D0184610431BD0009840210A1A6F
:1009A00018460599FFF7AAFF05460E46009A0599D5
:1009B0000498FFF793FF084305D0012004E0204688
:1009C000394607B0F0BD0020C11705430E432C4344
:1009D000374300990E986305401A7905E40A00220E
:1009E0000C43FD0A0A3002D500200146E9E7010563
:1009F000101969410C9C0D9D00196941FFF7A2FF78
:100A0000DFE780220029016801D0114300E0914313
:100A10000160704789000818006B80B27047803011
:100A20004068084000D001207047930810B59B0033
:100A3000181843689207D20E1F249440A343914094
:100A40000B43436010BD5B1E12021B04FF3A013AC8
:100A500013430B430168802211400B43036070472E
:100A6000CA06D20E02674909490141677047002949
:100A7000416F02D00122114301E04908490041675A
:100A800070470000F0B596460A461349C000461864
:100A900000230025FF2098402C46104216D000204D
:100AA000012199408C461146C1406746394206D023
:100AB00087000F21B9400D437146B9400C43401CDB
:100AC0000828F0D33068A843204330600833361D2F
:100AD000082BDEDDF0BD00002020024030B57D2572
:100AE0000446ED0002E0284600F004F8641EFAD245
:100AF00030BD00000A49097848430A49486100238B
:100B00008B6108690122104308610869C20701D09E
:100B1000C003FAD508694008400008618B6170473E
:100B20000D00002000E000E010B50420C04300F0FC
:100B3000B3FE054803490068FFF7FAFA0349087055
:100B400010BD000000127A00080000200D000020F7
:100B500010B5FF242D3422460CA10DA000F088FC16
:100B600000280DD122460BA108A000F081FC00282E
:100B700006D1224608A109A000F07AFC002801D085
:100B8000012010BD00F024FC002010BD6100000019
:100B90002B2B2B002B4F4B004F4B000041542B4570
:100BA0003D4F46460D0A000010B500F0BBFC00F0BA
:100BB0002FFC00F019FC00F063F9002805D1FFF7C5
:100BC000C7FF002801D100F001F810BD10B5FF24C7
:100BD0002D34224650A151A000F04AFC00287DD1BE
:100BE00022464DA152A000F043FC0028F7D1224636
:100BF00049A153A000F03CFC0028F0D1224646A1B8
:100C000054A000F035FC00287FD1224642A155A017
:100C100000F02EFC002878D122463FA154A000F01D
:100C200027FC002871D122463BA155A000F020FCF2
:100C300000286AD1224638A154A000F019FC0028EF
:100C400063D1224634A155A000F012FC00285CD1EB
:100C5000224631A154A000F00BFC002855D12246B9
:100C60002DA155A000F004FC00284ED122462AA157
:100C700055A000F0FDFB002847D1224626A15AA02E
:100C800000F0F6FB002840D1224623A15AA000F034
:100C9000EFFB002839D122461FA15BA000F0E8FB42
:100CA000002832D122461CA15BA000F0E1FB002805
:100CB0002BD1224618A15CA000F0DAFB002824D139
:100CC000224615A15CA000F0D3FB00281DD12246CE
:100CD00011A15DA000F0CCFB002800E015E014D1CC
:100CE00022460DA15CA000F0C3FB00280DD12246D6
:100CF00009A15DA000F0BCFB002806D1224606A198
:100D00005DA000F0B5FB002801D0012010BD00F06F
:100D10005FFB002010BD00004F4B000041542B4CE6
:100D20004F524150524F543D4E4F44450D0A000022
:100D300041542B50524F5453454C3D310D0A000045
:100D400041542B574D4F44453D5452414E530D0A8B
:100D50000000000041542B504D4F44453D52554E2C
:100D60000D0A000041542B5350443D31300D0A0010
:100D700041542B43483D343730300D0A0000000009
:100D800041542B5057523D32320D0A0041542B41F1
:100D90004444523D36323238380D0A0041542B4615
:100DA00045433D310D0A000041542B4C42543D4F08
:100DB00046460D0A0000000041542B55415254464E
:100DC000543D31300D0A000041542B554152543DE1
:100DD0003131353230302C382C312C4E4F4E452CA1
:100DE0004E46430D0A00000041542B524553454ED8
:100DF000443D300D0A00000041542B46444D4F4401
:100E0000453D4F4E0D0A000041542B545843483D78
:100E1000343830300D0A000041542B53454E444FB6
:100E20004B3D300D0A00000041542B4D54553D32CE
:100E300034300D0A0000000041542B444154414D10
:100E40004F44453D300D0A0041542B5246544F3D0E
:100E500036300D0A0000000041542B50464C4147EB
:100E60003D300D0A0000000041542B52454C4159C1
:100E70003D300D0A0000000041542B5A0D0A0000BD
:100E800010B5FF222D3206A108A000F0F1FA0028CB
:100E900001D0012010BD00F09BFA002010BD000021
:100EA0004C6F526120537461727421004C6F7261F7
:100EB00000000000F8B5244C611C204600F055F9F4
:100EC00000F090FBFFF779FA82B220486280007848
:100ED000322805D37920207165206071732004E0E9
:100EE0006E2020716F2060710020174DA0710835B1
:100EF00020782978884211D163786E782946B342E8
:100F00000CD14B88D21A022A08DC931C06DB032280
:100F1000291D201DFFF75DF9002813D021782970C5
:100F20006178697061886980221D09A1281D00F01F
:100F3000EDFD0548001D009063886278217805A0CA
:100F400000F09EF9F8BD00000E0000200C0000200B
:100F5000257300006C73725C25645C25645C2564F9
:100F60005C2573230A00000010B50A4C204600F0EF
:100F700027F801280DD1204600F012F8064908781C
:100F8000401CC0B208700A2803D1044A0020107027
:100F9000087010BD00600740000000200C00002019
:100FA0004168490849004160BFF34F8F70470422F0
:100FB0000029016801D0114300E0914301607047AE
:100FC0004068C00700D0012070470029016802D0A6
:100FD0000122114301E04908490001607047C160E6
:100FE000704781607047000010B500200122120494
:100FF0000123014600F0D8FB0C4C00212046FFF7EE
:10100000F0FF0B4909682046FFF7E9FF2046FFF78C
:10101000C7FF01212046FFF7D8FF0121054A4904F7
:10102000116001212046FFF7C2FF10BD006007409C
:101030000800002000E100E070B50024204600F028
:10104000CFF8144D04E0641CE4B20120FFF752FD18
:101050000121284600F007FC002802D0642CF2D3BE
:1010600010E0642C0ED2002404E0641CE4B20120E1
:10107000FFF740FD0121284600F0F5FB002803D0D2
:10108000642C04D3012070BD642CEED3FAE7002059
:1010900070BD000000400B4070B50121032000220C
:1010A00089034004012300F07FFB01220F4DD4038C
:1010B0002146284600F09AFB2146284600F094FB82
:1010C000012211460220FFF7DDFC094C002201211C
:1010D000204600F08BFB01221146204600F0A6FBC3
:1010E00000F068F8FFF7A8FF70BD000000200B407B
:1010F00000400B4070B50024144D04E0641CE4B2C1
:101100000120FFF7F7FC0121284600F0ACFB002886
:1011100001D0642CF2D3002404E0641CE4B201206A
:10112000FFF7E8FC0121284600F09DFB002801D1D3
:10113000642CF2D32820FFF7DDFC0121284600F0C3
:1011400092FB002800D0012070BD000000400B4041
:1011500070B5002004464006050EFFF7CBFF641C67
:101160002843E4B2082CF6D370BDFEB50E46074600
:1011700000F020F8FFF760FF002818D100246D462A
:10118000FFF7E6FF2855641CE4B2052CF8D36B4644
:101190001878597842189978DB78CB18D2186B46B2
:1011A0001B799A4203D1307039700020FEBD0120B6
:1011B000FEBD000010B5012000F012F8074C01211F
:1011C000204600F011FB1420FFF788FC0121204687
:1011D00000F04EFB1E20FFF78DFC10BD00400B40C1
:1011E00010B50A4C01280AD000220121204600F047
:1011F000FDFA01220121204600F018FB10BD01225A
:101200001146204600F0F2FA0022F3E700400B40BE
:101210003EB50024FF254121224601350902012364
:10122000104600F0C1FA062204210020FFF72AFC34
:10123000062208210020FFF725FCE1204002009053
:1012400068468580C48004814481AC056946204697
:1012500000F002FC01221146204600F03FFC012272
:101260001146204600F047FC01220021204600F0F4
:1012700042FC0249E01108603EBD000000E100E0D0
:101280000FB4F0B5B3B039AA6846389900F052FCF3
:101290006846FEF789FF01260024B60785B2B71518
:1012A0000CE03946304600F0D1FB0028F9D0684602
:1012B000015D304600F01DFC641CA4B2AC42F0D3CA
:1012C00033B0F0BC08BC04B01847000070B5002172
:1012D0000120800401230A4600F066FA0125154C1E
:1012E000AD032946204600F0C3FA012229462046D4
:1012F00000F07CFA02222946204600F09FFA0022E4
:101300002946204600F07AFA6D002946204600F072
:10131000AFFA01222946204600F068FA0222294647
:10132000204600F08BFA00222946204600F066FA9B
:1013300070BD000000400B4010B5074B002807D0DF
:10134000012804D10022C103184600F093FA10BD11
:10135000002201218903F7E700400B403EB500243D
:1013600009212246C9020123104600F01DFA01217D
:10137000062209030220FFF785FB0121062249030B
:101380000220FFF77FFB7D20C0020090FF2001308C
:1013900069468880CC800C814C810B4C204600F043
:1013A0005BFB01221146204600F098FB012211460A
:1013B000204600F0A0FB01220021204600F09BFB0C
:1013C0000249A00308603EBD0010044000E100E0B7
:1013D00010B5044C20468038A16CFEF7C6FE0020F4
:1013E000A06410BDA400002070B5FF24074D013497
:1013F00000222146284600F03DFA1420FFF76EFB3C
:1014000001222146284600F035FA70BD00400B400D
:1014100070B500210120800401230A4600F0C4F9C0
:10142000FF240B4D01342146284600F021FA012209
:101430002146284600F0DAF902222146284600F02B
:10144000FDF901222146284600F0D8F970BD0000C0
:1014500000400B4070B50E460546002405E0287894
:1014600000F050F8641CE4B26D1CB442F7D370BDB8
:1014700070B516460C460546FFF7AAFF294615A08B
:10148000FFF7FEFE2846FEF78FFEC1B22846FFF7A3
:10149000E1FF3046FFF722FB14A12046FEF78BFE4A
:1014A000002815D01248806C002811D0104A002165
:1014B000803A115421461046FEF762FE00280D497D
:1014C0000DA003D0FFF7DCFE002070BDFFF7D8FEB3
:1014D000012070BD5B4273705F4C6F72615F53653A
:1014E0006E645F436D645D2025730D0A000000008B
:1014F000A40000202400002072657475726E3A25E5
:10150000730D0A0010B5064C0146204600F0F1FAB2
:101510008021204600F09AFA0028F9D010BD000082
:10152000001000403EB5002411212246890201230B
:10153000104600F039F9062204210120FFF7A2FA33
:10154000062208210120FFF79DFAE12040020090C9
:10155000FF20013069468880CC800C814C810B4C87
:10156000204600F079FA01221146204600F0B6FA32
:1015700001221146204600F0BEFA01220021204639
:1015800000F0B9FA0249600308603EBD0010004057
:1015900000E100E00120800410B582010111012367
:1015A00000F002F90321102000F012F902221021AC
:1015B0001046FFF767FA0A4C01212046FFF750FA60
:1015C00001231A4600212046FFF73DFA0022082198
:1015D0002046FFF72AFA01212046FFF712FA10BD34
:1015E0000000014070B500F023F8FEF7DFFE0D4D5E
:1015F0002946FEF754FE0B21C943FEF7CBFE0446F5
:1016000001462846FEF743FE2146FEF785FE064CBE
:101610002146FEF781FE054900F08CFF2146FEF7CA
:101620003EFE70BD0000A0400000204187A727BFFC
:1016300070B50025114E2C46012208213046FFF7D7
:10164000F4F901213046FFF712FA04213046FFF782
:10165000E6F90028F9D000213046FFF7DBF94519FB
:101660000520FFF73BFA641CE4B20A2CE4D30A21FC
:101670002846FEF75DFD80B270BD0000000001400D
:1016800017291ED30178F4291BD14178F32918D1E9
:101690008178F22915D1C178F12912D1027A09494C
:1016A000022A0A70437A4B80C37A0B71037BCB808A
:1016B000837B0B72C07B488103D103490878401CAF
:1016C00008707047120100200C00002070B5184D02
:1016D0000446686B4607760F00F02EF81549206027
:1016E000330000F050FA081405070714140E111403
:1016F000606000E06160296A6068052909D34009DB
:1017000008E00120C003F3E77D200002F0E700209D
:10171000EEE7C840A060A96A4903490F072902D033
:10172000C840E06070BD0321FEF702FDF9E700004C
:101730000080084000127A000C490868C869C20F8E
:101740004868400AC007C00F0ED00948002A0BD1D4
:101750008869C00D0007000F00D110208969044A74
:101760004902890F5043C84070470000008008407C
:1017700000127A001FB541090A4A89008A1800211F
:101780002E2800D10221C006C00E12680323834018
:101790001A40C24054186846FFF798FF029804B0F8
:1017A000E04010BD38800840F0B5084F7C6AFD6A03
:1017B0003E6B84438D439643002B02D004430D437C
:1017C00016437C62FD623E63F0BD0000008008406D
:1017D00010B5044CA26A072383409A4381400A4310
:1017E000A26210BD0080084081627047002A026832
:1017F00001D00A4300E08A4302607047F0B500243C
:1018000025462346CE0706D05E001746B7403C4328
:101810000327B7403D4349085B1C102BF2D34169B5
:10182000A9434161416921434161F0BD002A4268F9
:1018300001D00A4300E08A4342607047002A08D082
:10184000012A09D082688A438260C2688A43C260E2
:10185000704782680A43F7E7C2680A43C260826839
:101860008A4382607047C069084000D001207047F9
:1018700041627047002A01D041627047816270471F
:10188000024801680029FCD07047000004000020D5
:101890007047704770470000042204490428086913
:1018A00002D09043086170471043FBE700E000E07E
:1018B00070470000F0B539491020C860384A01204F
:1018C00010603849086B40252843086336480023D8
:1018D00044158668272EFCD100E044604668B605B2
:1018E000FBD500E043604668B605FBD41360486A48
:1018F000032292029043486248680122D2021043B8
:1019000048608868C008C007FBD04868C008C000AD
:10191000C01C4860486B4007400F0328FAD1234A97
:101920001068C008C000401C10600B624868A043EB
:1019300048600868961530430860486817153843B2
:10194000486088688008C007FBD0086BA84308631C
:101950000868B04308600320000688614868204397
:10196000486088684008C007FBD01068C008C00005
:10197000801C10600B624868C008C000401C4860B2
:10198000486B4007400F0128FAD110681021084326
:1019900010601068090208431060F0BD0081084023
:1019A000008308400080084000A106400002084073
:1019B00010B50B4C2021204600F048F800280DD02F
:1019C000204600F093F8074CC0B22146A26C803943
:1019D0008854FFF797FDA06C401CA06410BD000068
:1019E00000100040A400002010B50E4C202120461D
:1019F00000F02CF8012814D1204600F077F80A4CAA
:101A0000C1B2E07D172806D22154E07D401CC0B24F
:101A1000E075172805D3C1B20348FFF731FE002057
:101A2000E07510BD00100440F000002010B520212A
:101A30004C06204600F00AF8002806D0204600F0A8
:101A400055F8C1B2204600F054F810BD00690840B6
:101A500000D001207047000070B504460D46C888CC
:101A60008988626808432989184B1A401143084342
:101A700069890843606001208007844206D11820EC
:101A8000FFF778FE2968FEF753FB60621048844236
:101A900006D11A20FFF76EFE2968FEF749FB606247
:101AA0000C48844206D11C20FFF764FE2968FEF72B
:101AB0003FFB60620848844206D11E20FFF75AFEB1
:101AC0002968FEF735FB606270BD0000FCE0FFFF97
:101AD000000004400010004000100440002AC268CA
:101AE00001D00A4300E08A43C2607047006880B2B8
:101AF00070470160704710238B404168002A01D075
:101B0000194300E099434160704700000FB410B5DD
:101B100004A9074B02AA039800F042F9044602A95F
:101B2000002000F0D9FC204610BC08BC04B01847C7
:101B3000D924000037B514460846064B6A462146AC
:101B400000F02EF904466946002000F0C5FC20464E
:101B50003EBD0000D92400002021020C01D010213C
:101B60001046020A01D010460839020901D0104679
:101B7000091F820801D01046891E420801D0881E24
:101B80007047081A704730B47446641E2578641C88
:101B9000AB4200D21D46635D5B00E31830BC1847C2
:101BA0004100080200D004200A0E01D00122104397
:101BB000090EFF2901D102210843012800D1052087
:101BC000704710B57F200021C005FEF7A5FB10BDB2
:101BD00010B5FEF70BFB10BD10B500210846FEF74F
:101BE0009BFB10BD10B5072061210007FEF7D2FB5B
:101BF00010BD5E2110B5C9430807FEF7CBFB10BD31
:101C000002E008C8121F08C1002AFAD170477047C5
:101C1000002001E001C1121F002AFBD17047000023
:101C2000014908607047000020000020F0B51FB493
:101C300086B00998089A030D0021024314D0514838
:101C4000514A1818504305141198012810981AD0B9
:101C5000281A401C00264D4F4D49009601910490D2
:101C6000002812DA444211E01198012449A3012806
:101C700001D11098C1430698119A84600360C26034
:101C800041600BB0F0BD4042E4E70446210500206E
:101C90003F4A001C51410391029012E0E00707D037
:101CA00032463B4601990098FEF7BEFC0191009038
:101CB00032463B4610461946FEF7B6FC06460F462E
:101CC0006410002CEAD10498039B0028029A099919
:101CD000089806DAFEF7A8FC019B009AFEF7A4FC20
:101CE00005E0FEF709FD019B009AFEF705FD04469D
:101CF0000E460022284BFEF7C9FD03D80020C04342
:101D0000014607E00022254B20463146FEF7DAFB6C
:101D1000FEF776FD102409E0002C0ADB0A220023DE
:101D2000FEF75FFB079B30321A55641E02460A43DA
:101D3000F2D11122641C079B121B1C19119B012B51
:101D400003D0012308430ED10AE0084304D0112038
:101D500010900020119077E71098151A6D1E0BE077
:101D60001098824202DD00236D1C03E0824201DAFA
:101D700000236D1E002BEED0069811998260C16081
:101D800030C07EE701FCFFFF104D00000000144052
:101D90000000F03F300000000000F0430000E03F92
:101DA000FFB597B00646002518E2252877D1002414
:101DB0002746FD49049400E00443761C3278012054
:101DC000203A90400842F7D130782A280ED00222DB
:101DD000307801463039092916D804990A23594325
:101DE000303940181443761C0490F1E7189802C863
:101DF00004911890002904DA01204003044348426A
:101E0000049002200443761C30782E2814D104203C
:101E100004437078761C2A2809D11898761C80C84B
:101E2000189009E00A214F43303FC719761C3078DB
:101E3000014630390929F5D930786C2810D006DCF4
:101E40004C281AD068280ED06A2817D104E07428CC
:101E500013D07A2812D110E00120400504430CE091
:101E60000121090501E0032109050C437178814234
:101E700003D1012000052418761C761C30781190BF
:101E800066280BD013DC58287DD009DC00287BD0D5
:101E90004528F6D04628F4D047281AD1A5E118E005
:101EA000632835D0642870D0652812D19DE1702850
:101EB0006CD008DC6728F1D069287BD06E280DD063
:101EC0006F2806D1BAE073282ED0752871D07828F3
:101ED00059D01A9A199990476D1C7EE16002400F03
:101EE000022809D003280DD00428189801680DD0C5
:101EF0000D60001D189070E11898EA1701680D60D8
:101F00004A60F6E7189801680D80F2E70D70F0E777
:101F100018986A4601781172001D189000205072BE
:101F200002A80090012005E0189802C8189000202F
:101F30000091C04361070DD5002101E00199491CC2
:101F40000191B94212DA8142F8DB009A515C002912
:101F5000F4D10BE0002101E00199491C019181427B
:101F6000FADB019A0099895C0029F5D1019904985E
:101F70001A9B471A21463846199A00F097FA019998
:101F8000401945180BE04FE02CE113E04EE00098BB
:101F900000990078491C00911A9A19999047019864
:101FA000401E0190401CF2D1214638461A9B199AD6
:101FB00010E137E00A200021009001916002410FFA
:101FC000022907D0189A01CA1892C2179446032909
:101FD00008D00AE01898C01DC108C90005C91891A9
:101FE000944607E000B2C2179446042902D140B2D9
:101FF000C1178C4600226146944506DA0A46002144
:10200000404291418C462D2102E0210504D52B212F
:102010006A461173012103E0E10701D02021F7E7AF
:10202000029155E00A200AE0102008E010200090FC
:102030000021042004430191082703E00820002127
:10204000019100906002410F022907D0189A01CA3D
:10205000189200229446032908D008E01898C01D61
:10206000C108C90005C91891944603E080B204294B
:1020700000D1C0B200210291210729D51199702900
:1020800006D0009A1021019B4A401A4305D00EE069
:1020900040216A461173012108E06146014306D0E0
:1020A00030216A4611731199517302210291009AED
:1020B0000821019B4A401A430AD16146014301D1DC
:1020C000610705D530216A46117301217F1E0291F7
:1020D0001199582904D035A10E910DA90D910DE04B
:1020E00037A1F9E76146019B009AFEF77AF90E9B4A
:1020F0008C469B5C0D9A521E0D92137061460143F3
:10210000F0D10D9805A9081A20300190600703D579
:1021100001200004844300E001270198874201DD8B
:10212000381A00E00020019900904118029809181F
:102130000498401A0490E00306D421461A9B199A89
:10214000049800F0B3F94519002706E003A81A9A8D
:10215000C05D199990476D1C7F1C02988742F5DB82
:10216000E0030CD521461A9B199A049800F09EF9B9
:10217000451904E01A9A3020199990476D1C00996E
:10218000481E00900029F5DC08E00D980D990078B4
:10219000491C0D911A9A199990476D1C0199481E76
:1021A00001900029F1DC63E109280100303132336C
:1021B0003435363738396162636465660000000083
:1021C000303132333435363738394142434445466D
:1021D0000000000000F05AF94519761C30780028FC
:1021E00000D0E2E528461BB0F0BD600700D406270A
:1021F0001898C01DC108C90048680A680831C30F93
:10220000DB071891190001D09CA108E0210501D538
:102210009BA104E0E10701D09AA100E09AA143004C
:1022200011985B08109165280CD006DC452809D070
:1022300046281DD0472841D141E0662818D067289C
:102240003CD13CE00021112F01DB112000E0781C83
:102250000191009008A911A8FFF7E8FC13990591D6
:102260000021119A15927F1C12980197009150E05D
:102270000120C00703900120019008A9009711A830
:10228000FFF7D4FC139A149905920022119B009237
:1022900012981593059A0192002901D0104602E088
:1022A000791C40180190381A01D5019804E0404289
:1022B000401E0090781C0190C01B029043E0012F4B
:1022C00000DA01270021112F01DD112000E038463E
:1022D0000191009008A911A8FFF7A8FC1399059196
:1022E000119A0021129815920091019721070CD4A0
:1022F0000599B94201DB019900E00191012904DD52
:10230000159A491E515C302906D0B84201DA011DE8
:1023100005DA0121029115E00199491EEDE7002837
:1023200005DC0099411800910199091A03E0019A0E
:10233000411C914200DD01910099401A401C02901D
:102340000120C0070390200706D40299019881421A
:1023500002DB0020C043029000206946C87707AF27
:10236000012103980337C907884224D00220119025
:102370002B201290039800280CDA404203902D2065
:10238000129007E00A210398FDF7D2FE30317F1E3C
:10239000039039701199481E11900029F2DC0398BE
:1023A0000028EFD1791E129808703078202108405B
:1023B0004530BF1E387006A8C01BC01D0390109882
:1023C0000078002800D00120019941180298C01718
:1023D0000918039809180498401A401E0490E00355
:1023E00006D421461A9B199A049800F05FF8451903
:1023F00010980078002803D01A9A199990476D1CFC
:10240000E00324D521461A9B199A049800F04EF84F
:1024100045191CE00098002807DB009905988842C0
:1024200003DD1598405C199901E0199930201A9A3A
:10243000904700986D1C401C00900298401E02902E
:10244000002804D11A9A2E20199990476D1C0199E1
:10245000481E01900029DDDC05E038781A9A7F1CBF
:10246000199990476D1C0399481E03900029F4DCCC
:1024700021461A9B199A0498ACE600002D00000032
:102480002B0000002000000000000000F8B504460A
:1024900000251E461746880404D405E0394620204E
:1024A000B0476D1C641EF9D52846F8BDFFB504463B
:1024B000002581B01E46C80301D5302700E0202743
:1024C000880404D505E038460399B0476D1C641EA6
:1024D000F9D5284605B0F0BD0A68531C0B60107092
:1024E00070470000FFF7E6F9FEF7F0FEFEF71CFB71
:1024F000FEF78EFEFEF732FFFFF74CF8FEF7CCFD3D
:10250000FEF772FD0020FEF717FFFEF74DFB054DAD
:10251000054CFEF7CFFC2978227804A0FEF7B0FE28
:10252000F7E70000120100200C00002025782C2580
:10253000640A0000F0B50D4684468BB0002002907E
:1025400001216046C9057F26431A0122F60569006C
:102550005206770089182C46BB427DD25201914227
:102560007AD3F849012241185203914275D9510199
:102570004118C90C0C0709050A0E1146F24BD20589
:10258000D218801A009002987F390818240F0690FC
:102590002046FEF729F90321C943FDF7FBFE7F2101
:1025A000C905FDF723FE014601900098FDF76FFE77
:1025B000029001990098FDF719FE0127FF0208908B
:1025C000C019000B0003014603900198FDF75FFE60
:1025D0000099FDF70BFE04907F20C0050899FDF7D8
:1025E0009BFE014601900298FDF759FEC019000BB1
:1025F000000300900499FDF752FE0490039900989F
:10260000FDF74DFE0299FDF746FE0499FDF73FFEEA
:102610000199FDF744FE014602900098FDF7E6FDA2
:1026200001460490FDF73BFEC8490190FDF737FED7
:10263000C749FDF7DBFD0199FDF731FE039000214D
:102640000098FDF7A7FE019003990498FDF727FE77
:1026500000900021029801E028E12AE2FDF79AFEAD
:102660000099FDF7C3FD014600900198FDF7BEFDFE
:10267000C019000B0003014603900198FDF707FE07
:102680000099FDF7B3FD0090B2490398FDF707FEEE
:102690000290B1490098FDF702FE0090AF490398FF
:1026A000FDF7FDFD0099FDF7A1FD014600900298A0
:1026B000FDF79CFDC019000B000301460190029834
:1026C000FDF7E5FD0099FDF791FDA5490890E000B3
:1026D00079440A5840180992446806980001FEF7A8
:1026E00083F8049021460898FDF780FD0199FDF7D5
:1026F0007DFD0999FDF77AFD0499FDF777FDC01975
:10270000070B3F0338460499FDF7C1FD0999FDF712
:10271000BEFD0199FDF7BBFD2146FDF7B8FD089907
:10272000FDF7B9FD04460120C0022818000B000384
:10273000014603902846FDF7AAFD002102900846B5
:10274000FEF7B8F80C210840059038460399FDF7CC
:10275000A6FD410005468B204908C00581420ADDDF
:102760004A00FF2109068A4205D8E90FC907084334
:10277000044600201FE002990398FDF737FD21462B
:10278000FDF78DFD044638460299FDF788FD214688
:10279000FDF72CFD074601462846FDF727FD0121E0
:1027A000C9024018040B240321462846FDF76FFD9B
:1027B0003946FDF71BFD01900C200599FEF77AF8CC
:1027C00020460199FDF712FDFEF73AF8074605117C
:1027D000FEF70AF82146FDF75EFD0199FDF706FDBB
:1027E00004466049FDF75BFD5F49FDF7FFFC2146AC
:1027F000FDF755FD5D49FDF7F9FC2146FDF74FFD5D
:1028000001463807840E5A4878440059FDF747FDC1
:10281000584979440959FDF7E9FC57497944095960
:10282000FDF7E4FC29467D31FC2907D22946FDF756
:10283000B1FD3146FDF733FD0BB0F0BD2946FF2257
:10284000BF318032914217D22946FDF7A3FD3146B0
:10285000FDF725FD04464100FF200006814219D006
:1028600060000BD02046FFF79BF9042801D1FFF749
:10287000C0F920460BB0F0BD002D0BDA0220FFF7A7
:10288000CFF9FFF7B6F940004008F10FC907084338
:102890000BB0F0BD0220FFF7C3F9FFF7A3F940002A
:1028A0004008F10FC90708430BB0F0BD01229207A1
:1028B000914239D3FF21C9057F2241181206914266
:1028C0001AD2400061004008090E7F2909DB9729D0
:1028D00000DB46E69622521A012191404A1E22420E
:1028E00006D00120FFF79CF9FFF776F90BB0F0BD99
:1028F0002142EED0214E34E6410004D001224100B5
:102900001206914207D30121C9057F22411A1206FE
:102910009142DED346E01B21FDF73CFD1A21C9435D
:1029200002910028CDDB1CE601225206914232D3EF
:10293000690025D0EA0F3F21D207C9055418254662
:10294000B8E70000001080C0000080C07EE24C3E6E
:10295000ABAAAA3E00B038423BAA3842D49AB8BBD0
:1029600080040000FC596337C9FF753A1872313D85
:1029700048040000FE030000B4030000000080BF14
:10298000410097D0FF21420009068A4292D27F205F
:10299000C0050BB0F0BD01221206914202D25110C7
:1029A000651A87E7420064495208644E5318B342DF
:1029B00010D363005B085918B1420BD37F21C905BE
:1029C000884264D0660062D0FF26F605B24201D884
:1029D000B34204D92946FFF7FBF80BB0F0BDB04273
:1029E00002D1002C49DB61E06200120E7F2A08DB75
:1029F000972A0CDA96239B1A01229A40531E2342EF
:102A000001D0002204E0224201D0012200E0022293
:102A10004B4B98420BD1002C04DB012A46D11846BF
:102A20000BB0F0BD012A28D1D0070BB0F0BD0028B3
:102A30000ED00125ED07A84225D1B4421DD09C42FD
:102A400008D0002C15DA002A04D0012A09D001E0B0
:102A5000002C12DA0220FFF7E3F8FFF7B2F80BB010
:102A6000F0BD0220FFF7DCF8FFF7ABF868400BB0D1
:102A7000F0BD002A01D0012A02D000200BB0F0BD29
:102A800028460BB0F0BD8122D205D04202D10846C3
:102A90000BB0F0BD7F2140000906884201D301211F
:102AA00000E00021E017401C8142E6D130460BB027
:102AB000F0BD7F21C905FDF7EAFB01210446C943AA
:102AC000FDF768FC1F49FDF7E6FB2146FDF7E7FB34
:102AD0003F210906FDF7DFFB074621460846FDF7C3
:102AE000DEFB0121C90748403946FDF7D8FB074600
:102AF00015492046FDF7D3FB029014493846FDF7EF
:102B0000CEFB074612492046FDF7C9FB3946FDF7C3
:102B10006DFB044601460298FDF768FB0121C902DE
:102B20004018070B3F0339460298FDF7B0FB2146DA
:102B3000FDF75CFBF6E50000FFFF7F80FFFF3F0035
:102B4000000080FFABAAAA3E00B0B8413BAAB84142
:102B5000D49A38BB00000000000000000000B33F22
:102B6000B2BE7D3A00002E40DFCF513800007E40DB
:102B7000BF51FABA00E0A44019DAC3BA00E0C84075
:102B8000C2ED8AB90040EB40CD1F2CBA00100641BF
:102B90002AFFFABA00C01541DFCFD13700D0244157
:102BA0009A97703A0050334189478E360040414130
:102BB000E75B9D3800B04E41C00A98B900A05B4168
:102BC000558F943A00306841DA92C0BA004074419F
:102BD00062B3C63A0000803F00A0853F00908B3F63
:102BE00000C0913F0030983F00F09E3F00F0A53FAD
:102BF0000050AD3F0000B53F0000BD3F0060C53F45
:102C00000020CE3F0040D73F00C0E03F00C0EA3F79
:102C10000020F53F000000007D36AC397D3C38399E
:102C2000EBDCF438320A7E39124C26399B6AED39D6
:102C3000A4EE83397F661E39F6398A392B4265390D
:102C4000A48211395B991F39C3EECD39DDE7C63750
:102C5000A5A22F390000803FC3AA853FC2958B3FB4
:102C6000D3C3913FF037983F32F59E3FD7FEA53F43
:102C70003F58AD3FF304B53FA408BD3F2A67C53FA9
:102C80008C24CE3FFD44D73FDFCCE03FC7C0EA3FB6
:102C90007D25F53FB42C000000000020240000003A
:102CA000001C0000D82C000024000020FC020000C2
:102CB000101C00000000000000000000006CDC029E
:102CC0000000000000000000000000000000000004
:082CD0000000000000000000FC
:04000005000000C136
:00000001FF
