:020000040000FA
:10000000D8020020C1000000B90E0000A90E0000B7
:10001000FFFFFFFFFFFFFFFFFFFFFFFFFFFFFFFFF0
:10002000FFFFFFFFFFFFFFFFFFFFFFFFBD0E000011
:10003000FFFFFFFFFFFFFFFFBB0E0000210F0000CF
:1000400003010000030100000301000003010000A0
:100050000301000003010000030100000301000090
:1000600003010000FFFFFFFF030100000301000088
:10007000030100000301000003010000FFFFFFFF78
:10008000FFFFFFFF03010000030100000301000068
:1000900003010000030100000301000045100000FF
:1000A0000301000021100000030100000301000013
:1000B0000301000003010000030100000301000030
:1000C0001048804710488047104800471048016991
:1000D000002910D1416900290DD1816900290AD177
:1000E000C169002907D1BFF34F8F0A490A48C86088
:1000F000BFF34F8FFEE77047FEE7FEE7FEE7FEE740
:10010000FEE7FEE7CD000000250F00001D01000006
:100110000003084000ED00E00400FA0503488546AE
:1001200000F04EFA00480047731A0000D802002081
:1001300030B50B46014600202022012409E00D467F
:10014000D5409D4205D31D469540491B2546954007
:1001500040191546521E002DF1DC30BDD2B201E02F
:100160000270401C491EFBD270470022F6E710B512
:1001700013460A4604461946FFF7F0FF204610BD15
:1001800030B505462A460B4610781C78521C5B1C7D
:10019000002801D0A042F7D0002C03D0002802D0C4
:1001A0006D1CEFE7284630BD421C0178401C002939
:1001B000FBD1801A704710B5002200E0521C835C0E
:1001C0008C5CA34201D1002BF8D1D8B2E1B2401A25
:1001D00010BDF0B51FB40646002082B0054640248D
:1001E000019100901BE0019922460F46304600F035
:1001F00009FA049A059B801A994110D310461946B2
:10020000224600F0EFF9361A8F410197224601206D
:100210000021009F00F0E6F938184D41009020467B
:10022000641E0028DFDC019B00982946324607B097
:10023000F0BD0000F0B507460846584087B0C00F33
:10024000049048000E46590040084908BC1A8841ED
:1002500005D2384631461E4617460B460246580020
:10026000400810434CD0300D039040055900400D1C
:10027000490D0590401A0290402872DA18030121B6
:10028000000B09050843019004980092002805D04E
:100290000199524200208841009201900298402129
:1002A0000A1A0199009800F09DF905460C466B4624
:1002B00007CB00F0B8F9C0197141039A0E0D002365
:1002C000D71756401A467A40164344D0049A002A5B
:1002D0002DD0029A012A039A15DC1205C01A914109
:1002E00001263605001C7141D20F059ED2070093EE
:1002F000019202962A46234600F0B5F907B0F0BDF8
:1003000038463146FAE71605224A0F46B218C01A97
:10031000B74101210905001C4F4100187F411146DA
:1003200018187941E20F10436D19644113E0E20798
:100330006D0815436408C2071443039A0126120589
:10034000C01A91413605001C7141CE074008304368
:100350004908C01851412A46234600F077F9CDE7F5
:10036000FFE7049801224000C117121A00238B41B5
:1003700004983146C417381AA141EEE730B401247D
:10038000E407634030BC55E730B40124E407614022
:1003900030BC4FE70000E0FFF0B51FB488B00B9908
:1003A0000998002448400999C00F4900490809915B
:1003B000C0070B990090490049080B9109990898CA
:1003C000A64608431CD00B990A98084318D00998F0
:1003D00001244000420D4800410D09982405000306
:1003E000000B204309900B980003000B20430B9057
:1003F00050181C494018002201901446104605E090
:10040000002001460DB0F0BD032801DA034600E0EC
:1004100003239C46C11A0AAE0AE05F0008ADED5BFB
:100420004F00F75B7D430027AA187C41491C5B1EE7
:100430006145F2DD410004AB5A522104120C0A431B
:10044000240C401C0828DFDB0198029000997046BC
:1004500001910090059B049A0799069800F003F912
:10046000D0E700000DFCFFFFF0B50C465C4085B006
:10047000E40FE40703944C000026640859009446F6
:10048000490802460296224321D062460A431ED002
:100490006200570D4A000E032303550D0124024646
:1004A0002C492405781B1B0B360B4018234326438D
:1004B000614600901C46501AB44103D30098401C7A
:1004C000009002E0921800985B41002803DA0020B7
:1004D000014605B0F0BD002001210905074686460A
:1004E00011E064461D46141BB54106D36546521BF8
:1004F000B341744607430C43A646CD07400849085C
:10050000284392185B4105460D43EAD11046184333
:1005100013D06046194650407140084306D06046EB
:10052000101AB34106D20122002306E00022012363
:10053000DB0702E00122D243531000987446010504
:10054000381C6141029C039D0019694100F07EF84E
:10055000BFE70000FD0300004A0009030123090B67
:100560001B0519430A4B10B5520D9A4202DA0020BE
:10057000014610BD064B34339A4203DC9A1A00F050
:1005800041F810BD034BD21800F02CF810BD00004C
:10059000FF030000CDFBFFFF10B5002904DB0124A1
:1005A000E40740428C412146002B04DB1C4601231A
:1005B000DB075242A341994200D1904210BD000096
:1005C000064C0125064E05E0E36807CC2B430C3CA6
:1005D00098471034B442F7D3FFF7A4FD801A000007
:1005E000A01A000010B5202A04DB0146203A9140F1
:1005F000002010BD914020239C1A0346E34019437C
:10060000904010BD10B5202A04DB0846203AD040A7
:10061000002110BD0B46D340D0402024A21A9140A7
:100620000843194610BD10B5202A06DBCB17084633
:10063000203A1041C1170B4306E00B461341D0404E
:100640002024A21A91400843194610BD10B5002B72
:1006500008DA0024401C614192185B411A4301D121
:100660004008400010BDF0B51FB482B005460C0034
:1006700003D0084600F06EFD02E000F06BFD203074
:100680000246009021462846FFF7ACFF049B059ADE
:1006900004460F4618431143084314D0184610432C
:1006A0001BD0009840210A1A18460599FFF7AAFFA7
:1006B00005460E46009A05990498FFF793FF0843F4
:1006C00005D0012004E02046394607B0F0BD0020E7
:1006D000C11705430E432C43374300990E98630519
:1006E000401A7905E40A00220C43FD0A0A3002D5BB
:1006F00000200146E9E70105101969410C9C0D9D98
:1007000000196941FFF7A2FFDFE70000F0B5964648
:100710000A461349C000461800230025FF209840D0
:100720002C46104216D00020012199408C461146DB
:10073000C1406746394206D087000F21B9400D43BA
:100740007146B9400C43401C0828F0D33068A843D8
:10075000204330600833361D082BDEDDF0BD00007D
:100760002020024010B504460420C04300F0A8FB3E
:1007700010487D2189010068FFF7DAFC00F0CAFB10
:10078000002000F0BBFB002000F0A6FB012000F0E1
:10079000A3FB0021084A03E01369D803FCD5491CD8
:1007A000A142F9D30120C04300F096FB002000F0E5
:1007B00093FB10BD0400002000E000E010B5FF2412
:1007C0002D3422460CA10DA000F01EFA00280DD1F8
:1007D00022460BA108A000F017FA002806D12246F5
:1007E00008A109A000F010FA002801D0012010BDD6
:1007F00000F0BAF9002010BD610000002B2B2B0087
:100800002B4F4B004F4B000041542B453D4F46466C
:100810000D0A000010B500F04FFA00F0C5F900F025
:10082000AFF900F0F3F8002805D1FFF7C7FF002863
:1008300001D100F001F810BD10B5FF242D3422467F
:1008400036A137A000F0E0F9002861D1224633A19B
:1008500038A000F0D9F900285AD122462FA139A09A
:1008600000F0D2F9002853D122462CA139A000F083
:10087000CBF900284CD1224628A13AA000F0C4F9B7
:10088000002845D1224625A13AA000F0BDF9002854
:100890003ED1224621A13BA000F0B6F9002837D175
:1008A00022461EA13AA000F0AFF9002830D122461E
:1008B0001AA13BA000F0A8F9002829D1224617A1CF
:1008C0003AA000F0A1F9002822D1224613A13AA0B3
:1008D00000F09AF900281BD1224610A139A000F09F
:1008E00093F9002814D122460CA13AA000F08CF90B
:1008F00000280DD1224609A13AA000F085F9002870
:1009000006D1224605A13FA000F07EF9002801D0C3
:10091000012010BD00F028F9002010BD4F4B000051
:1009200041542B4C4F524150524F543D4E4F444531
:100930000D0A000041542B50524F5453454C3D3149
:100940000D0A000041542B574D4F44453D4D530D6A
:100950000A00000041542B544D4F44453D310D0ACF
:100960000000000041542B504D4F44453D57550D5C
:100970000A00000041542B57544D3D323530300DA4
:100980000A00000041542B5350443D31300D0A0001
:1009900041542B43483D343730300D0A00000000ED
:1009A00041542B5057523D32320D0A0041542B41D5
:1009B0004444523D300D0A0041542B4645433D31DD
:1009C0000D0A000041542B4C42543D4F46460D0A3F
:1009D0000000000041542B5541525446543D3130E3
:1009E0000D0A000041542B554152543D31313532EE
:1009F00030302C382C312C4E4F4E452C4E46430D6A
:100A00000A00000041542B5A0D0A000010B5FF22C5
:100A10002D3206A108A000F0F7F8002801D001202F
:100A200010BD00F0A1F8002010BD00004C6F526115
:100A300020537461727421004C6F726100000000D9
:100A40003EB500241121224689020123104600F000
:100A5000D9F9062204210120FFF758FE06220821B9
:100A60000120FFF753FEE12040020090FF200130FB
:100A700069468880CC800C814C810B4C204600F06C
:100A8000FDFA01221146204600F03AFB01221146F0
:100A9000204600F042FB01220021204600F03DFBF1
:100AA0000249600308603EBD0010004000E100E024
:100AB0000FB4F0B5B3B039AA6846389900F038FBE6
:100AC0006846FFF771FB0C4E002485B2B7150CE0A9
:100AD0003946304600F0CCFA0028F9D06846015D6E
:100AE000304600F018FB641CA4B2AC42F0D333B023
:100AF000F0BC08BC04B018470010004070B50021DD
:100B00000120800401230A4600F07CF90125154CE0
:100B1000AD032946204600F0BEF9012229462046B1
:100B200000F084F902222946204600F09FF90022B5
:100B30002946204600F082F96D002946204600F043
:100B4000AAF901222946204600F070F9022229461E
:100B5000204600F08BF900222946204600F06EF96D
:100B600070BD000000400B4010B5044C204680389A
:100B7000A16CFFF7FAFA0020A06410BD88000020E5
:100B800070B5FF24074D013400222146284600F0AD
:100B900084F91420FFF7E6FD01222146284600F0E3
:100BA0007CF970BD00400B4070B50021012080042D
:100BB00001230A4600F026F9FF240B4D013421469B
:100BC000284600F068F901222146284600F02EF957
:100BD00002222146284600F049F9012221462846F2
:100BE00000F02CF970BD000000400B4070B50E46BF
:100BF0000546002405E0287800F050F8641CE4B2B3
:100C00006D1CB442F7D370BD70B516460C46054650
:100C1000FFF7AAFF294615A0FFF74AFF2846FFF76E
:100C2000C3FAC1B22846FFF7E1FF3046FFF79AFD4D
:100C300014A12046FFF7BFFA002815D01248806C97
:100C4000002811D0104A0021803A11542146104644
:100C5000FFF796FA00280D490DA003D0FFF728FFF3
:100C6000002070BDFFF724FF012070BD5B42737050
:100C70005F4C6F72615F53656E645F436D645D20AE
:100C800025730D0A000000008800002008000020E5
:100C900072657475726E3A25730D0A0010B50124E1
:100CA0000146A407204600F036FA8021204600F0D5
:100CB000DFF90028F9D010BD3EB50024FF25412101
:100CC0002246013509020123104600F09BF8062256
:100CD00004210020FFF71AFD062208210020FFF75B
:100CE00015FDE1204002009068468580C4800481A3
:100CF0004481AC056946204600F0C0F90122114646
:100D0000204600F0FDF901221146204600F005FAC8
:100D100001220021204600F000FA0249E01108609B
:100D20003EBD000000E100E070B5184D0446686B60
:100D30004607760F00F02EF815492060330000F0CA
:100D400020FA081405070714140E1114606000E05F
:100D50006160296A6068052909D3400908E001201B
:100D6000C003F3E77D200002F0E70020EEE7C84073
:100D7000A060A96A4903490F072902D0C840E06072
:100D800070BD0321FFF7D4F9F9E7000000800840A7
:100D900000127A000C490868C869C20F4868400A06
:100DA000C007C00F0ED00948002A0BD18869C00DBA
:100DB0000007000F00D110208969044A4902890FF9
:100DC0005043C840704700000080084000127A007D
:100DD0001FB541090A4A89008A1800212E2800D12E
:100DE0000221C006C00E1268032383401A40C2408D
:100DF00054186846FFF798FF029804B0E04010BD11
:100E000038800840F0B5084F7C6AFD6A3E6B844329
:100E10008D439643002B02D004430D4316437C625E
:100E2000FD623E63F0BD000000800840002A0268B9
:100E300001D00A4300E08A4302607047F0B5002405
:100E400025462346CE0706D05E001746B7403C43F2
:100E50000327B7403D4349085B1C102BF2D341697F
:100E6000A9434161416921434161F0BD002A08D095
:100E7000012A09D082688A438260C2688A43C260BC
:100E8000704782680A43F7E7C2680A43C260826813
:100E90008A438260704741627047002A01D04162F4
:100EA0007047816270470000024801680029FCD049
:100EB0007047000000000020704770477047000036
:100EC000042204490428086902D09043086170474D
:100ED0001043FBE700E000E00749002806D00128A6
:100EE000086906D04008400008617047002088610A
:100EF000704701221043F7E700E000E004490222B6
:100F00000028086901D0104300E090430861704751
:100F100000E000E0014948617047000000E000E0A7
:100F200070470000F0B539491020C860384A0120E8
:100F300010603849086B4025284308633648002371
:100F400044158668272EFCD100E044604668B6054B
:100F5000FBD500E043604668B605FBD41360486AE1
:100F6000032292029043486248680122D202104351
:100F700048608868C008C007FBD04868C008C00047
:100F8000C01C4860486B4007400F0328FAD1234A31
:100F90001068C008C000401C10600B624868A04385
:100FA000486008689615304308604868171538434C
:100FB000486088688008C007FBD0086BA8430863B6
:100FC0000868B04308600320000688614868204331
:100FD000486088684008C007FBD01068C008C0009F
:100FE000801C10600B624868C008C000401C48604C
:100FF000486B4007400F0128FAD1106810210843C0
:1010000010601068090208431060F0BD00810840BC
:10101000008308400080084000A10640000208400C
:1010200010B5074C2021204600F022F8002806D0F9
:10103000204600F06DF8C1B2204600F06CF810BDFB
:101040000010004010B520214C06204600F010F89A
:1010500000280AD0204600F05BF804490B468A6C51
:10106000803B9854886C401C886410BD8800002028
:101070000069084000D001207047000070B50446A8
:101080000D46C8888988626808432989184B1A4028
:101090001143084369890843606001208007844246
:1010A00006D11820FFF794FE2968FFF741F8606227
:1010B0001048844206D11A20FFF78AFE2968FFF7FC
:1010C00037F860620C48844206D11C20FFF780FE8E
:1010D0002968FFF72DF860620848844206D11E2077
:1010E000FFF776FE2968FFF723F8606270BD000005
:1010F000FCE0FFFF0000044000100040001004402E
:10110000002AC26801D00A4300E08A43C2607047E7
:10111000006880B270470160704710238B404168BF
:10112000002A01D0194300E0994341607047000054
:1011300037B514460846064B6A46214600F0F8F8D3
:1011400004466946002000F08FFC20463EBD0000AA
:10115000691A00002021020C01D010211046020A59
:1011600001D010460839020901D01046091F820833
:1011700001D01046891E420801D0881E7047081A07
:10118000704730B47446641E2578641CAB4200D2AC
:101190001D46635D5B00E31830BC184702E008C8D9
:1011A000121F08C1002AFAD170477047002001E0E1
:1011B00001C1121F002AFBD170470000F0B51FB417
:1011C00086B00998089A030D0021024314D05148B3
:1011D000514A1818504305141198012810981AD034
:1011E000281A401C00264D4F4D490096019104904D
:1011F000002812DA444211E01198012449A3012881
:1012000001D11098C1430698119A84600360C260AE
:1012100041600BB0F0BD4042E4E7044621050020E8
:101220003F4A001C51410391029012E0E00707D0B1
:1012300032463B4601990098FFF7AEF801910090C5
:1012400032463B4610461946FFF7A6F806460F46BB
:101250006410002CEAD10498039B0028029A099993
:10126000089806DAFFF798F8019B009AFFF794F8C0
:1012700005E0FFF7F9F8019B009AFFF7F5F804463F
:101280000E460022284BFFF787F903D80020C04301
:10129000014607E00022254B20463146FEF7CAFFF3
:1012A000FFF75AF9102409E0002C0ADB0A22002378
:1012B000FEF78FFF079B30321A55641E02460A4321
:1012C000F2D11122641C079B121B1C19119B012BCC
:1012D00003D0012308430ED10AE0084304D01120B3
:1012E00010900020119077E71098151A6D1E0BE0F2
:1012F0001098824202DD00236D1C03E0824201DA75
:1013000000236D1E002BEED0069811998260C160FB
:1013100030C07EE701FCFFFF104D000000001440CC
:101320000000F03F300000000000F0430000E03F0C
:10133000FFB597B00646002518E2252877D100248E
:101340002746FD49049400E00443761C32780120CE
:10135000203A90400842F7D130782A280ED0022255
:10136000307801463039092916D804990A2359439F
:10137000303940181443761C0490F1E7189802C8DD
:1013800004911890002904DA0120400304434842E4
:10139000049002200443761C30782E2814D10420B7
:1013A00004437078761C2A2809D11898761C80C8C6
:1013B000189009E00A214F43303FC719761C307856
:1013C000014630390929F5D930786C2810D006DC6F
:1013D0004C281AD068280ED06A2817D104E0742847
:1013E00013D07A2812D110E00120400504430CE00C
:1013F0000121090501E0032109050C4371788142AF
:1014000003D1012000052418761C761C3078119039
:1014100066280BD013DC58287DD009DC00287BD04F
:101420004528F6D04628F4D047281AD1A5E118E07F
:10143000632835D0642870D0652812D19DE17028CA
:101440006CD008DC6728F1D069287BD06E280DD0DD
:101450006F2806D1BAE073282ED0752871D078286D
:1014600059D01A9A199990476D1C7EE16002400F7D
:10147000022809D003280DD00428189801680DD03F
:101480000D60001D189070E11898EA1701680D6052
:101490004A60F6E7189801680D80F2E70D70F0E7F2
:1014A00018986A4601781172001D18900020507239
:1014B00002A80090012005E0189802C818900020AA
:1014C0000091C04361070DD5002101E00199491C3D
:1014D0000191B94212DA8142F8DB009A515C00298D
:1014E000F4D10BE0002101E00199491C01918142F6
:1014F000FADB019A0099895C0029F5D101990498D9
:101500001A9B471A21463846199A00F097FA019912
:10151000401945180BE04FE02CE113E04EE0009835
:1015200000990078491C00911A9A199990470198DE
:10153000401E0190401CF2D1214638461A9B199A50
:1015400010E137E00A200021009001916002410F74
:10155000022907D0189A01CA1892C2179446032983
:1015600008D00AE01898C01DC108C90005C9189123
:10157000944607E000B2C2179446042902D140B253
:10158000C1178C4600226146944506DA0A460021BE
:10159000404291418C462D2102E0210504D52B21AA
:1015A0006A461173012103E0E10701D02021F7E72A
:1015B000029155E00A200AE0102008E01020009077
:1015C0000021042004430191082703E008200021A2
:1015D000019100906002410F022907D0189A01CAB8
:1015E000189200229446032908D008E01898C01DDC
:1015F000C108C90005C91891944603E080B20429C6
:1016000000D1C0B200210291210729D5119970297A
:1016100006D0009A1021019B4A401A4305D00EE0E3
:1016200040216A461173012108E06146014306D05A
:1016300030216A4611731199517302210291009A67
:101640000821019B4A401A430AD16146014301D156
:10165000610705D530216A46117301217F1E029171
:101660001199582904D035A10E910DA90D910DE0C5
:1016700037A1F9E76146019B009AFEF7AAFD0E9B90
:101680008C469B5C0D9A521E0D921370614601436D
:10169000F0D10D9805A9081A20300190600703D5F4
:1016A00001200004844300E001270198874201DD06
:1016B000381A00E00020019900904118029809189A
:1016C0000498401A0490E00306D421461A9B199A04
:1016D000049800F0B3F94519002706E003A81A9A08
:1016E000C05D199990476D1C7F1C02988742F5DBFD
:1016F000E0030CD521461A9B199A049800F09EF934
:10170000451904E01A9A3020199990476D1C0099E8
:10171000481E00900029F5DC08E00D980D9900782E
:10172000491C0D911A9A199990476D1C0199481EF0
:1017300001900029F1DC63E10928010030313233E6
:1017400034353637383961626364656600000000FD
:1017500030313233343536373839414243444546E7
:101760000000000000F05AF94519761C3078002876
:1017700000D0E2E528461BB0F0BD600700D4062784
:101780001898C01DC108C90048680A680831C30F0D
:10179000DB071891190001D09CA108E0210501D5B3
:1017A0009BA104E0E10701D09AA100E09AA14300C7
:1017B00011985B08109165280CD006DC452809D0EB
:1017C00046281DD0472841D141E0662818D0672817
:1017D0003CD13CE00021112F01DB112000E0781CFE
:1017E0000191009008A911A8FFF7E8FC1399059151
:1017F0000021119A15927F1C12980197009150E0D8
:101800000120C00703900120019008A9009711A8AA
:10181000FFF7D4FC139A149905920022119B0092B1
:1018200012981593059A0192002901D0104602E002
:10183000791C40180190381A01D5019804E0404203
:10184000401E0090781C0190C01B029043E0012FC5
:1018500000DA01270021112F01DD112000E03846B8
:101860000191009008A911A8FFF7A8FC1399059110
:10187000119A0021129815920091019721070CD41A
:101880000599B94201DB019900E00191012904DDCC
:10189000159A491E515C302906D0B84201DA011D63
:1018A00005DA0121029115E00199491EEDE70028B2
:1018B00005DC0099411800910199091A03E0019A89
:1018C000411C914200DD01910099401A401C029098
:1018D0000120C0070390200706D402990198814295
:1018E00002DB0020C043029000206946C87707AFA2
:1018F000012103980337C907884224D002201190A0
:101900002B201290039800280CDA404203902D20DF
:10191000129007E00A210398FEF70AFC30317F1E7F
:10192000039039701199481E11900029F2DC039838
:101930000028EFD1791E12980870307820210840D5
:101940004530BF1E387006A8C01BC01D03901098FC
:101950000078002800D00120019941180298C01792
:101960000918039809180498401A401E0490E003CF
:1019700006D421461A9B199A049800F05FF845197D
:1019800010980078002803D01A9A199990476D1C76
:10199000E00324D521461A9B199A049800F04EF8CA
:1019A00045191CE00098002807DB0099059888423B
:1019B00003DD1598405C199901E0199930201A9AB5
:1019C000904700986D1C401C00900298401E0290A9
:1019D000002804D11A9A2E20199990476D1C01995C
:1019E000481E01900029DDDC05E038781A9A7F1C3A
:1019F000199990476D1C0399481E03900029F4DC47
:101A000021461A9B199A0498ACE600002D000000AC
:101A10002B0000002000000000000000F8B5044684
:101A200000251E461746880404D405E039462020C8
:101A3000B0476D1C641EF9D52846F8BDFFB50446B5
:101A4000002581B01E46C80301D5302700E02027BD
:101A5000880404D505E038460399B0476D1C641E20
:101A6000F9D5284605B0F0BD0A68531C0B6010700C
:101A70007047FFF743F8FEF7E3FFFEF7CBFEFEE704
:101A8000A01A000000000020080000009C110000C7
:101A9000A81A000008000020D0020000AC110000CD
:081AA00000000000006CDC02F4
:04000005000000C136
:00000001FF
